S01B00004C43445F494C49393334315F4553455F3332332E73726563F5
S11300000C9455030C9472030C9472030C947203B5
S11300100C9472030C9472030C9472030C94720388
S11300200C9472030C9472030C9472030C94720378
S11300300C9472030C9472030C9472030C94720368
S11300400C9472030C9472030C9472030C94720358
S11300500C9472030C9472030C9472030C94720348
S11300600C9472030C9472030C9472030C94720338
S11300700C9472030C9472030C9472030C94720328
S11300800C9472030C9472030C9472030C94720318
S11300900C9472030C9472030C9472030C94720308
S11300A00C9472030C9472030C9472036E616E00D0
S11300B0696E660000407A10F35A00A0724E180967
S11300C00010A5D4E80000E87648170000E40B54BB
S11300D0020000CA9A3B000000E1F505000080968A
S11300E09800000040420F000000A08601000000BC
S11300F0102700000000E803000000006400000076
S113010000000A00000000000100000000002C763E
S1130110D888DC674F0823DFC1DFAE59E1B1B79659
S1130120E5E3E453C63AE651997696E8E6C28426B6
S1130130EB898C9B62ED407C6FFCEFBC9C9F40F292
S1130140BAA56FA5F490055A2AF75C936B6CF9670E
S11301506DC11BFCE0E40D47FEF520E6B500D0EDD3
S1130160902E0300943577050080841E080000203B
S11301704E0A000000C80C333333330F986E1283D9
S11301801141EF8D2114893BE65516CFFEE6DB18AD
S1130190D1844B381BF77C1D901DA4BBE424203272
S11301A084725E228100C9F124ECA1E53D270000A0
S11301B00000003E5B4F5B3E3E6B4F6B3E1C3E7C43
S11301C03E1C183C7E3C181C577D571C1C5E7F5EF1
S11301D01C00183C1800FFE7C3E7FF0018241800B0
S11301E0FFE7DBE7FF30483A060E26297929264047
S11301F07F050507407F05253F5A3CE73C5A7F3E73
S11302001C1C08081C1C3E7F14227F22145F5F0004
S11302105F5F06097F017F006689956A60606060A0
S11302206094A2FFA29408047E040810207E20108B
S113023008082A1C08081C2A08081E101010100C94
S11302401E0C1E0C30383E3830060E3E0E060000E2
S113025000000000005F00000007000700147F1486
S11302607F14242A7F2A12231308646236495620F5
S1130270500008070300001C2241000041221C001A
S11302802A1C7F1C2A08083E0808008070300008D9
S113029008080808000060600020100804023E51AD
S11302A049453E00427F400072494949462141493F
S11302B04D331814127F1027454545393C4A4949A6
S11302C03141211109073649494936464949291E10
S11302D000001400000040340000000814224114FF
S11302E014141414004122140802015909063E4151
S11302F05D594E7C1211127C7F494949363E414179
S113030041227F4141413E7F494949417F090909D1
S1130310013E414151737F0808087F00417F41003D
S11303202040413F017F081422417F404040407FEC
S1130330021C027F7F0408107F3E4141413E7F0939
S11303400909063E4151215E7F091929462649497A
S1130350493203017F01033F4040403F1F204020BA
S11303601F3F4038403F63140814630304780403B8
S11303706159494D43007F41414102040810200066
S11303804141417F040201020440404040400003D7
S113039007080020545478407F28444438384444A3
S11303A04428384444287F385454541800087E099B
S11303B00218A4A49C787F0804047800447D4000BB
S11303C02040403D007F1028440000417F40007CD5
S11303D0047804787C080404783844444438FC18CD
S11303E024241818242418FC7C08040408485454B1
S11303F0542404043F44243C4040207C1C204020DE
S11304001C3C4030403C44281028444C9090907C44
S11304104464544C44000836410000007700000056
S11304204136080002010204023C2623263C1EA198
S1130430A161123A4040207A3854545559215555F7
S113044079412254547842215554784020545579A6
S1130450400C1E5272123955555559395454545939
S113046039555454580000457C410002457D4200F2
S113047001457C407D1211127DF0282528F07C5422
S11304805545002054547C547C0A097F493249491B
S113049049323A4444443A324A4848303A41412184
S11304A07A3A42402078009DA0A07D3D4242423DE0
S11304B03D4040403D3C24FF2424487E4943662B74
S11304C02FFC2F2BFF0929F620C0887E0903205416
S11304D05479410000447D413048484A3238404014
S11304E0227A007A0A0A727D0D19317D2629292F74
S11304F028262929292630484D402038080808088C
S113050008080808382F10C8ACBA2F102834FA008D
S1130510007B000008142A142222142A1408AA00BA
S11305205500AAAA55AA55AA000000FF00101010F1
S1130530FF00141414FF001010FF00FF1010F0103F
S1130540F0141414FC001414F700FF0000FF00FF63
S11305501414F404FC141417101F10101F101F148B
S113056014141F00101010F0000000001F101010D1
S1130570101F10101010F010000000FF10101010C9
S11305801010101010FF10000000FF140000FF00F6
S1130590FF00001F10170000FC04F41414171017B8
S11305A01414F404F40000FF00F7141414141414C5
S11305B014F700F7141414171410101F101F141438
S11305C014F4141010F010F000001F101F000000AD
S11305D01F14000000FC140000F010F01010FF10B5
S11305E0FF141414FF141010101F00000000F0106A
S11305F0FFFFFFFFFFF0F0F0F0F0FFFFFF0000004F
S11306000000FFFF0F0F0F0F0F3844443844FC4A1B
S11306104A4A347E02020606027E027E026355497D
S113062041633844443C04407E201E2006027E027E
S11306300299A5E7A5991C2A492A1C4C7201724CFF
S1130640304A4D4D303048784830BC625A463D3EC1
S1130650494949007E0101017E2A2A2A2A2A444462
S11306605F444440514A444040444A51400000FFE2
S11306700103E080FF000008086B6B083612362483
S113068036060F090F0600001818000000101000AD
S11306903040FF0101001F01011E00191D17120047
S11306A03C3C3C3C00000000000011241FBECFEF86
S11306B0CDBFDFE2DEBF10E2A0E0B0E2E6EDF7E29C
S11306C002C005900D92A233B107D9F720E2A2E34C
S11306D0B0E201C01D92AD34B207E1F70E946A0E88
S11306E00C94E9130C9400002F923F924F925F9266
S11306F06F927F928F929F92AF92BF92CF92DF922E
S1130700EF92FF920F931F93CF93DF93CDB7DEB792
S11307102997CDBFDEBFE0914B20F0914C208E177E
S11307209F0708F07AC0E0914920F0914A206E17A3
S11307307F0708F072C0AE2CB12CFC0156E0E59E98
S1130740E00DF11D11241E161F060CF066C0F50104
S1130750EE0FFF1FEE0FFF1FEE0FFF1FE60FF71F39
S11307601E161F060CF059C0180139016C837D83D5
S113077065E0469F900111244C0189839A83E12C02
S11307808C819D8108962C01D901A819B909AE83E1
S1130790BF83EB821A2DBB81B53009F462C0EE81B0
S11307A0FF8189819A81E80FF91FE255FE4F049178
S11307B0CC80DD8076010987188716C0A885A13012
S11307C009F441C083019501A501B601C4010E9449
S11307D0410DE985E695E987FFEFEF1AFF0ACA0C98
S11307E0DB1CE414F50459F0998590FDE7CF6214FD
S11307F0730479F3B885B13069F18101E4CF1885C8
S11308005B815F5F5B8389819A81019689839A8387
S11308108A0C9B1C563009F0BECF2996CDBFDEBF93
S1130820DF91CF911F910F91FF90EF90DF90CF90C8
S1130830BF90AF909F908F907F906F905F904F90FC
S11308403F902F900895A301B70189819A810E9456
S1130850200DBFCFA101B70189819A810E94200D8B
S1130860B8CF00E0A5CF80934520909346206093B5
S113087037207093382008958093392090933A203C
S1130880089580933B2090933C20089580933420D6
S11308900895EF920F931F938A3051F18D3021F117
S11308A0482F00913B2010913C2020913920309119
S11308B03A206091372070913820E0903420809164
S11308C04520909146200E94740320913420809109
S11308D045209091462036E0239F800D911D1124E0
S11308E080934520909346201F910F91EF90089597
S11308F020913420809137209091382038E0239F34
S1130900800D911D112480933720909338201092EC
S11309104520109246201F910F91EF9008950F9358
S11309201F93CF93DF93FC018081882361F08F01B3
S1130930EF01219603C08991882329F00E9449047C
S113094001151105C1F7DF91CF911F910F91089502
S113095088ED84BF80915000806280935000809124
S1130960510085FFFCCF88ED84BF1092400080E4E5
S11309708093550087E18093550080E18093500077
S11309808091510084FFFCCF88ED84BF84E0809384
S113099040000895E0E4F6E080818C608083E4E424
S11309A0F6E08081846080830C94A804E09144067E
S11309B0E77EE0934406EAE2E093E308E091E2088C
S11309C0E7FFFCCFE0914406E061E0934406E09148
S11309D04406E860E0934406E0914406EF7EE09329
S11309E044069093E3089091E20897FFFCCF90911E
S11309F044069061909344069091440698609093C5
S1130A004406909144069F7E909344068093E308A5
S1130A108091E20887FFFCCF809144068061809337
S1130A20440680914406886080934406809144067D
S1130A308F7E809344065093E3088091E20887FFF9
S1130A40FCCF8091440680618093440680914406E3
S1130A50886080934406809144068F7E8093440688
S1130A604093E3088091E20887FFFCCF809144061D
S1130A7080618093440680914406877E8093440677
S1130A808BE28093E3088091E20887FFFCCF80919A
S1130A904406806180934406809144068860809374
S1130AA04406809144068F7E809344067093E30845
S1130AB08091E20887FFFCCF809144068061809397
S1130AC044068091440688608093440680914406DD
S1130AD08F7E809344066093E3088091E20887FF49
S1130AE0FCCF809144068061809344068091440643
S1130AF0886080934406809144068F7E80934406E8
S1130B003093E3088091E20887FFFCCF809144068C
S1130B1080618093440680914406886080934406F3
S1130B20809144068F7E809344062093E30880914D
S1130B30E20887FFFCCF80914406806180934406DD
S1130B4080914406877E809344068CE28093E30878
S1130B508091E20887FFFCCF8091440680618093F6
S1130B604406089580EF90E080934B2090934C20AE
S1130B7080E491E08093492090934A200E94CA0423
S1130B8080914006806B809340068091E0088065E8
S1130B908093E0088091E00880688093E008809169
S1130BA04406806180934406809144068460809367
S1130BB0440622E42A95F1F700C0809144068B7F15
S1130BC08093440682E48A95F1F700C0809144063C
S1130BD084608093440692E49A95F1F700C0809172
S1130BE04406877E8093440681E08093E3088091E5
S1130BF0E20887FFFCCF809144068061809344061D
S1130C002FE789EA93E0215080409040E1F700C04B
S1130C10000080914406877E809344068BEC809389
S1130C20E3088091E20887FFFCCF8091440680614D
S1130C3080934406809144068860809344068091A2
S1130C4044068F7E8093440689E38093E308809171
S1130C50E20887FFFCCF80914406806180934406BC
S1130C6080914406886080934406809144068F7E78
S1130C70809344068CE28093E3088091E20887FF26
S1130C80FCCF8091440680618093440680914406A1
S1130C90886080934406809144068F7E8093440646
S1130CA01092E3088091E20887FFFCCF809144060C
S1130CB08061809344068091440688608093440652
S1130CC0809144068F7E8093440684E38093E308F6
S1130CD08091E20887FFFCCF809144068061809375
S1130CE044068091440688608093440680914406BB
S1130CF08F7E8093440682E08093E3088091E2082B
S1130D0087FFFCCF809144068061809344068091E4
S1130D104406877E809344068FEC8093E308809199
S1130D20E20887FFFCCF80914406806180934406EB
S1130D3080914406886080934406809144068F7EA7
S1130D40809344061092E3088091E20887FFFCCF69
S1130D5080914406806180934406809144068860B3
S1130D6080934406809144068F7E8093440681ECF0
S1130D708093E3088091E20887FFFCCF80914406CA
S1130D808061809344068091440688608093440681
S1130D90809144068F7E8093440680E38093E30829
S1130DA08091E20887FFFCCF8091440680618093A4
S1130DB0440680914406877E8093440688EE80939F
S1130DC0E3088091E20887FFFCCF809144068061AC
S1130DD08093440680914406886080934406809101
S1130DE044068F7E8093440685E88093E3088091CF
S1130DF0E20887FFFCCF809144068061809344061B
S1130E0080914406886080934406809144068F7ED6
S1130E10809344061092E3088091E20887FFFCCF98
S1130E2080914406806180934406809144068860E2
S1130E3080934406809144068F7E8093440688E71D
S1130E408093E3088091E20887FFFCCF80914406F9
S1130E5080618093440680914406877E8093440693
S1130E608AEE8093E3088091E20887FFFCCF8091AB
S1130E704406806180934406809144068860809390
S1130E804406809144068F7E809344061092E308C2
S1130E908091E20887FFFCCF8091440680618093B3
S1130EA044068091440688608093440680914406F9
S1130EB08F7E809344061092E3088091E20887FFB6
S1130EC0FCCF80914406806180934406809144065F
S1130ED0877E809344068DEE8093E3088091E20838
S1130EE087FFFCCF80914406806180934406809103
S1130EF04406886080934406809144068F7E8093E4
S1130F00440684E68093E3088091E20887FFFCCFDF
S1130F1080914406806180934406809144068860F1
S1130F2080934406809144068F7E8093440683E038
S1130F308093E3088091E20887FFFCCF8091440608
S1130F4080618093440680914406886080934406BF
S1130F50809144068F7E8093440682E18093E30867
S1130F608091E20887FFFCCF8091440680618093E2
S1130F704406809144068860809344068091440628
S1130F808F7E8093440681E88093E3088091E20891
S1130F9087FFFCCF80914406806180934406809152
S1130FA04406877E8093440687EF8093E30880910C
S1130FB0E20887FFFCCF8091440680618093440659
S1130FC080914406886080934406809144068F7E15
S1130FD08093440680E28093E3088091E20887FFCF
S1130FE0FCCF80914406806180934406809144063E
S1130FF0877E8093440680EC8093E3088091E20826
S113100087FFFCCF809144068061809344068091E1
S11310104406886080934406809144068F7E8093C2
S1131020440683E28093E3088091E20887FFFCCFC3
S11310308091440680618093440680914406877EB3
S11310408093440681EC8093E3088091E20887FF53
S1131050FCCF8091440680618093440680914406CD
S1131060886080934406809144068F7E8093440672
S113107080E18093E3088091E20887FFFCCF8091B0
S1131080440680618093440680914406877E809361
S1131090440685EC8093E3088091E20887FFFCCF47
S11310A08091440680618093440680914406886060
S11310B080934406809144068F7E809344068EE399
S11310C08093E3088091E20887FFFCCF8091440677
S11310D0806180934406809144068860809344062E
S11310E0809144068F7E8093440688E28093E308CF
S11310F08091E20887FFFCCF809144068061809351
S1131100440680914406877E8093440687EC80934E
S1131110E3088091E20887FFFCCF80914406806158
S113112080934406809144068860809344068091AD
S113113044068F7E8093440686E88093E30880917A
S1131140E20887FFFCCF80914406806180934406C7
S113115080914406877E8093440686E38093E30867
S11311608091E20887FFFCCF8091440680618093E0
S11311704406809144068860809344068091440626
S11311808F7E8093440688E48093E3088091E2088C
S113119087FFFCCF80914406806180934406809150
S11311A04406877E809344068AE38093E308809113
S11311B0E20887FFFCCF8091440680618093440657
S11311C080914406886080934406809144068F7E13
S11311D08093440685E58093E3088091E20887FFC5
S11311E0FCCF80914406806180934406809144063C
S11311F0877E8093440681EB8093E3088091E20824
S113120087FFFCCF809144068061809344068091DF
S11312104406886080934406809144068F7E8093C0
S113122044061092E3088091E20887FFFCCF809186
S113123044068061809344068091440688608093CC
S11312404406809144068F7E8093440688E180930F
S1131250E3088091E20887FFFCCF80914406806117
S11312608093440680914406877E8093440686EBEF
S11312708093E3088091E20887FFFCCF80914406C5
S1131280806180934406809144068860809344067C
S1131290809144068F7E8093440688E08093E3081F
S11312A08091E20887FFFCCF80914406806180939F
S11312B044068091440688608093440680914406E5
S11312C08F7E8093440682E88093E3088091E2084D
S11312D087FFFCCF8091440680618093440680910F
S11312E04406886080934406809144068F7E8093F0
S11312F0440687E28093E3088091E20887FFFCCFED
S11313008091440680618093440680914406877EE0
S11313108093440682EF8093E3088091E20887FF7C
S1131320FCCF8091440680618093440680914406FA
S1131330886080934406809144068F7E809344069F
S11313401092E3088091E20887FFFCCF8091440665
S113135080618093440680914406877E809344068E
S113136086E28093E3088091E20887FFFCCF8091B6
S1131370440680618093440680914406886080938B
S11313804406809144068F7E8093440681E08093D6
S1131390E3088091E20887FFFCCF809144068061D6
S11313A08093440680914406877E8093440680EEB1
S11313B08093E3088091E20887FFFCCF8091440684
S11313C0806180934406809144068860809344063B
S11313D0809144068F7E809344068FE08093E308D7
S11313E08091E20887FFFCCF80914406806180935E
S11313F044068091440688608093440680914406A4
S11314008F7E8093440681E38093E3088091E20811
S113141087FFFCCF809144068061809344068091CD
S11314204406886080934406809144068F7E8093AE
S113143044068BE28093E3088091E20887FFFCCFA7
S113144080914406806180934406809144068860BC
S113145080934406809144068F7E809344068CE0FA
S11314608093E3088091E20887FFFCCF80914406D3
S1131470806180934406809144068860809344068A
S1131480809144068F7E809344068EE08093E30827
S11314908091E20887FFFCCF8091440680618093AD
S11314A044068091440688608093440680914406F3
S11314B08F7E8093440688E08093E3088091E2085D
S11314C087FFFCCF8091440680618093440680911D
S11314D04406886080934406809144068F7E8093FE
S11314E044068EE48093E3088091E20887FFFCCFF2
S11314F0809144068061809344068091440688600C
S113150080934406809144068F7E8093440681EF45
S11315108093E3088091E20887FFFCCF8091440622
S113152080618093440680914406886080934406D9
S1131530809144068F7E8093440687E38093E3087A
S11315408091E20887FFFCCF8091440680618093FC
S11315504406809144068860809344068091440642
S11315608F7E8093440687E08093E3088091E208AD
S113157087FFFCCF8091440680618093440680916C
S11315804406886080934406809144068F7E80934D
S1131590440680E18093E3088091E20887FFFCCF52
S11315A0809144068061809344068091440688605B
S11315B080934406809144068F7E8093440683E0A2
S11315C08093E3088091E20887FFFCCF8091440672
S11315D08061809344068091440688608093440629
S11315E0809144068F7E809344068EE08093E308C6
S11315F08091E20887FFFCCF80914406806180934C
S11316004406809144068860809344068091440691
S11316108F7E8093440689E08093E3088091E208FA
S113162087FFFCCF809144068061809344068091BB
S11316304406886080934406809144068F7E80939C
S113164044061092E3088091E20887FFFCCF809162
S1131650440680618093440680914406877E80938B
S1131660440681EE8093E3088091E20887FFFCCF73
S1131670809144068061809344068091440688608A
S113168080934406809144068F7E80934406109292
S1131690E3088091E20887FFFCCF809144068061D3
S11316A08093440680914406886080934406809128
S11316B044068F7E809344068EE08093E3088091F5
S11316C0E20887FFFCCF8091440680618093440642
S11316D080914406886080934406809144068F7EFE
S11316E08093440684E18093E3088091E20887FFB5
S11316F0FCCF809144068061809344068091440627
S1131700886080934406809144068F7E80934406CB
S113171083E08093E3088091E20887FFFCCF809107
S113172044068061809344068091440688608093D7
S11317304406809144068F7E8093440681E1809321
S1131740E3088091E20887FFFCCF80914406806122
S11317508093440680914406886080934406809177
S113176044068F7E8093440687E08093E30880914B
S1131770E20887FFFCCF8091440680618093440691
S113178080914406886080934406809144068F7E4D
S11317908093440681E38093E3088091E20887FF05
S11317A0FCCF809144068061809344068091440676
S11317B0886080934406809144068F7E809344061B
S11317C081EC8093E3088091E20887FFFCCF80914D
S11317D04406806180934406809144068860809327
S11317E04406809144068F7E8093440688E4809367
S11317F0E3088091E20887FFFCCF80914406806172
S113180080934406809144068860809344068091C6
S113181044068F7E8093440688E08093E308809199
S1131820E20887FFFCCF80914406806180934406E0
S113183080914406886080934406809144068F7E9C
S1131840809344068FE08093E3088091E20887FF49
S1131850FCCF8091440680618093440680914406C5
S1131860886080934406809144068F7E809344066A
S11318708CE08093E3088091E20887FFFCCF80919D
S11318804406806180934406809144068860809376
S11318904406809144068F7E8093440681E38093BE
S11318A0E3088091E20887FFFCCF809144068061C1
S11318B08093440680914406886080934406809116
S11318C044068F7E8093440686E38093E3088091E8
S11318D0E20887FFFCCF8091440680618093440630
S11318E080914406886080934406809144068F7EEC
S11318F0809344068FE08093E3088091E20887FF99
S1131900FCCF809144068061809344068091440614
S1131910877E8093440681E18093E3088091E20806
S113192087FFFCCF809144068061809344068FE258
S113193095E70197F1F700C0000080914406877E87
S11319408093440689E28093E3088091E20887FF4C
S1131950FCCF8091440680618093440608952091D1
S11319604406286020934406209144062F7E209349
S113197044069093E3089091E20897FFFCCF90917E
S11319804406906190934406909144069860909325
S11319904406909144069F7E909344068093E30806
S11319A08091E20887FFFCCF809144068061809398
S11319B044060895EF92FF920F931F93CF93DF9302
S11319C08C012091492030914A20215031094091C5
S11319D04B2050914C204150510960E070E080E070
S11319E090E00E94D60480914B2090914C20009767
S11319F001F1E12CF12C2091492030914A2021154C
S1131A00310589F0C0E0D0E0C8010E94AF0C2196F6
S1131A102091492030914A20C217D307A8F380911E
S1131A204B2090914C204FEFE41AF40AE816F90683
S1131A3030F3DF91CF911F910F91FF90EF900895B4
S1131A40CF93DF9320914B2030914C208217930742
S1131A5038F42091492030914A206217730718F016
S1131A60DF91CF910895EA019B012F5F3F4FAC01B5
S1131A704F5F5F4F0E94D604CE01DF91CF910C944B
S1131A80AF0CCF92DF92EF92FF920F931F93CF93FD
S1131A90DF936A01790120914B2030914C20821709
S1131AA09307A8F54091492050914A20641775077F
S1131AB070F5F6013197E80FF91FE217F30718F0F4
S1131AC06901C81AD90A970121503109260F371F15
S1131AD02417350728F59B01215031092E0D3F1D90
S1131AE0AC01415051094C0D5D1D0E94D604E11416
S1131AF0F10469F0C114D10431F0E601C8010E9477
S1131B00AF0C2197D9F781E0E81AF10899F7DF9132
S1131B10CF911F910F91FF90EF90DF90CF90089598
S1131B207A01E61AF70AD7CF90914406977E9093EC
S1131B30440696E39093E3089091E20897FFFCCF64
S1131B4090914406906190934406813009F45FC0FB
S1131B5008F44BC0823019F0833021F1089580914C
S1131B604406886080934406809144068F7E809367
S1131B70440688E88093E3088091E20887FFFCCF5D
S1131B808091440680618093440680EF90E08093C6
S1131B904B2090934C2080E491E0809349209093D3
S1131BA04A20089580914406886080934406809179
S1131BB044068F7E8093440688EE8093E3088091E8
S1131BC0E20887FFFCCF809144068061809344063D
S1131BD080E491E080934B2090934C2080EF90E040
S1131BE08093492090934A20089580914406886008
S1131BF080934406809144068F7E8093440688E453
S1131C008093E3088091E20887FFFCCFB9CF8091ED
S1131C104406886080934406809144068F7E8093B6
S1131C20440688E28093E3088091E20887FFFCCFB2
S1131C30CACFCF92DF92EF92FF920F931F93CF936D
S1131C40DF9380E4C82EDD24D394E12CF12CC0E092
S1131C50D0E08E0101701127219621E00227119511
S1131C6001951109960120553109A601B701C70153
S1131C700E94410D85E0E80EF11C9AE0C91AD108D2
S1131C80C331D10531F764E670E084E690E00E9448
S1131C9033048FEF9FEF0E94410480E098EF0E948D
S1131CA03C0483E00E94460485E090E20E948F0495
S1131CB02FEB86EC9DE2215080409040E1F700C07C
S1131CC00000DF91CF911F910F91FF90EF90DF9073
S1131CD0CF9008950E94B20583E090E00E94940D95
S1131CE080E29AEF0E94DA0C0E94190E8FE190E0D4
S1131CF00E943C0464E170E080E090E00E943304C0
S1131D0085E00E94460480E29AEF0E94410480E24A
S1131D109AEF0E94DA0C8DE090E20E948F048AE030
S1131D200E94490464E670E080E090E00E9433047D
S1131D3086E190E20E948F0482E00E94460480EED5
S1131D409FEF0E943C0460EA70E080E090E00E9413
S1131D5033048EE190E20E948F0482EB98EF0E949C
S1131D603C0468E770E084E190E00E943304FFCF14
S1131D70A3E1B0E0EEEBFEE00C9434126C014B01F5
S1131D802A01FC0116821782838181FF43C3AE01BD
S1131D904F5F5F4F3A01F6019381F40193FD859102
S1131DA093FF81914F01882309F430C3853239F4BC
S1131DB093FD859193FF81914F01853239F4B601EA
S1131DC090E00E94531352012501E5CF10E0F12C5D
S1131DD020E02032A0F48B3269F030F4803259F0E4
S1131DE0833269F420612CC08D3239F0803339F4A8
S1131DF0216026C02260246023C0286021C027FD02
S1131E0027C030ED380F3A3078F426FF06C0FAE0E8
S1131E101F9F300D1124132F13C04AE0F49E300D80
S1131E201124F32E20620CC08E3221F426FDEEC262
S1131E30206406C08C3611F4206802C0883641F450
S1131E40F40193FD859193FF81914F018111C1CFDD
S1131E509BEB980F933018F42061805E06C09BE9D9
S1131E60980F933008F071C12F7E26FF16E02F7370
S1131E70322E853619F42064322E08C0863621F4B9
S1131E80F22FF0683F2E02C01111115037FE07C027
S1131E901C3350F4EE24E394E10E27E00BC0183019
S1131EA038F027E017E005C027E04CE3E42E02C039
S1131EB0212FE12C520144E0A40EB11CF2016081F7
S1131EC07181828193810E2DA3010E9465122C01E0
S1131ED0098100FF02C003FF07C031FC08C032FEC5
S1131EE009C030E2232E07C02DE2222E04C09BE25B
S1131EF0292E01C0212C802F8C7019F0211068C26A
S1131F00A8C237FE0FC0E40C04FF04C08A818133E9
S1131F1009F4EA941E1474F5F8E0FE1578F588E0E7
S1131F20E82E2CC036FC2AC0812F90E0841595053C
S1131F309CF02CEF42162FEF520674F0432D4068AC
S1131F40342E0AC0E2E0F0E0EC0FFD1FE10FF11DBA
S1131F508081803319F411501111F4CF37FE0EC073
S1131F60EE24E394E10E812F90E0481659062CF4F8
S1131F70141904C0EE24E39401C010E037FE06C037
S1131F801414150434F4C201019605C085E090E0F0
S1131F9002C081E090E021100196112331F0212F3D
S1131FA030E02F5F3F4F820F931F2F2D30E08217B9
S1131FB0930714F4F81A01C0F12C832D897049F4A5
S1131FC0FF2039F0B60180E290E00E945313FA94A6
S1131FD0F7CF222029F0B601822D90E00E945313FE
S1131FE033FC09C0FF2039F0B60180E390E00E9481
S1131FF05313FA94F7CF37FE5AC0942D852D57FE0C
S113200002C090E080E0292E382E20E030E0A201CA
S11320104E1951094C875D87A201421953094E8715
S11320205F87612F70E044275527461B570B488B69
S1132030598B5FEF2516350649F4B6018EE290E020
S11320402A8B3B8B0E9453133B892A8942145304E5
S11320506CF04C855D854215530544F4EE85FF858F
S1132060E20FF31FE60DF71D818101C080E351E00B
S1132070251A31082F5F3F4F4889598924163506A0
S11320804CF0B60190E02A8B3B8B0E9453132A89B3
S11320903B89CFCF2414350439F49A81963318F44C
S11320A0953311F404FF81E3B60190E04BC08A81BB
S11320B0813309F00F7EB60190E00E945313111191
S11320C005C034FC18C085E690E017C0B6018EE266
S11320D090E00E94531382E0EE24E394E80EF301AF
S11320E0E80FF11D8081B60190E00E945313115056
S11320F08E2D91F7E6CF85E490E0B6010E9453134C
S113210057FC05C04114510439F404FF05C051942F
S1132110419451088DE201C08BE2B60190E00E9427
S1132120531380E39AE0491651042CF08F5F5AE070
S1132130451A5108F7CFB60190E00E945313B60137
S1132140C201C0960E94531357C1833631F08337BE
S113215079F0833509F058C021C05201E2E0AE0E97
S1132160B11CF2018081898301E010E0230114C0D5
S11321705201F2E0AF0EB11CF2014080518026FF03
S113218003C0612F70E002C06FEF7FEFC2012A8BA2
S11321900E9448138C012A892F7715C05201F2E05E
S11321A0AF0EB11CF2014080518026FF03C0612FA5
S11321B070E002C06FEF7FEFC2012A8B0E943D13D3
S11321C08C012A892068322E23FD1AC08F2D90E0BD
S11321D008171907A8F4B60180E290E00E9453138F
S11321E0FA94F4CFF20137FC859137FE81912F01E7
S11321F0B60190E00E945313F110FA9401501109B2
S11322000115110579F7F8C0843611F0893659F5AE
S1132210520127FF09C0F4E0AF0EB11CF201608146
S11322207181828193810AC0F2E0AF0EB11CF20188
S113223060817181072E000C880B990B2F76322E4A
S113224097FF09C090958095709561957F4F8F4F4A
S11322509F4F2068322E2AE030E0A3010E948B13A6
S1132260E82EE6183FC0022F853721F40F7E2AE0BE
S113227030E01DC0097F8F3691F018F4883559F08D
S1132280C5C0803719F0883711F0C0C0006104FF61
S113229009C0046007C024FF08C0066006C028E027
S11322A030E005C020E130E002C020E132E052011C
S11322B007FF09C0F4E0AF0EB11CF2016081718127
S11322C08281938108C0F2E0AF0EB11CF2016081FB
S11322D0718180E090E0A3010E948B13E82EE61840
S11322E00F77302E36FE0BC0332D3E7FE11650F4AF
S11322F034FE0AC032FC08C0332D3E7E05C00E2DCC
S1132300332D03C00E2D01C0012F34FF0CC0FE017C
S1132310EE0DF11D8081803311F4397E08C032FF47
S113232005C00E5F04C0832F867809F00F5F33FD6C
S113233013C030FF06C01E2D0F1518F41F0D101BFF
S11323400F2D0F1568F4B60180E290E03B8B0E94DC
S113235053130F5F3B89F5CF0F1510F4F01A01C02A
S1132360F12C34FF12C0B60180E390E03B8B0E9455
S113237053133B8932FF17C031FD03C088E790E057
S113238002C088E590E0B6010CC0832F867859F02E
S113239031FF02C08BE201C080E237FD8DE2B6015D
S11323A090E00E945313E11638F4B60180E390E004
S11323B00E9453131150F7CFEA94F301EE0DF11D6F
S11323C08081B60190E00E945313E110F5CF14C050
S11323D0F4E0FF1558F584E0F81A33FE1EC021100E
S11323E026C003FF2AC00CEA10E0F32DF0713F2E43
S11323F0F8018491811124C0FF2009F4E5CCB601D1
S113240080E290E00E945313FA94F6CFF60186819D
S1132410978126C08FEF9FEF23C0B60180E290E042
S11324200E945313FA94F110F8CFD9CFF12CB601CE
S1132430822D90E00E945313D4CF00EB10E0D5CF4F
S113244031108052B60190E00E9453130F5F1F4F6A
S1132450CFCF23E02F1510F483E0BECFF12CC1CFF2
S11324606396E2E10C944D122F923F924F925F9249
S11324706F927F928F929F92AF92BF92CF92DF9290
S1132480EF92FF920F931F93CF93DF93CDB7DEB7F5
S1132490CA1BDB0BCDBFDEBF09942A883988488864
S11324A05F846E847D848C849B84AA84B984C8846C
S11324B0DF80EE80FD800C811B81AA81B981CE0F63
S11324C0D11DCDBFDEBFED010895283008F027E00F
S11324D03327DA01990F311D87FD9160009661055C
S11324E0710539F432602E5F3D9330E32A95E1F7AC
S11324F008959F3F30F080387105610509F03C5F15
S11325003C5F3D93913008F08068911DDF93CF9339
S11325101F930F93FF92EF92192F987F9695E92FAF
S113252096959695E90FFF27E25FFE4F992733278B
S1132530EE24FF24A701E70105900894079428F4EA
S1132540360FE71EF81E491F511D660F771F881F9F
S1132550991F0694A1F70590079428F4E70EF81E36
S1132560491F561FC11D770F881F991F661F0694A8
S1132570A1F70590079428F4F80E491F561FC71FAA
S1132580D11D880F991F661F771F0694A1F7059028
S1132590079420F4490F561FC71FD81F990F661FB1
S11325A0771F881F0694A9F784911095177041F03E
S11325B0D695C79557954795F794E7941A95C1F71B
S11325C0E4EBF0E06894159015913591659195913F
S11325D005907FE27395E118F10A430B560BC90B82
S11325E0D009C0F7E10CF11E431F561FC91FD01DAF
S11325F07EF4703311F48A95E6CFE894015030F0FC
S1132600080F0AF40027021708F4202F2395022F3D
S11326107A3328F079E37D932A95E9F710C07D9306
S11326202A9589F606949795679537951795179483
S1132630E118F10A430B560BC90BD00998F0239506
S11326407E9173957A3308F070E37C932013B8F786
S11326507E9170617D9330F0839571E37D9370E397
S11326602A95E1F71124EF90FF900F911F91CF91DC
S1132670DF91992787FD90950895FC01059061509D
S113268070400110D8F7809590958E0F9F1F089584
S1132690FC016150704001900110D8F7809590952D
S11326A08E0F9F1F08950F931F93CF93DF93FB010A
S11326B0238121FD03C08FEF9FEF28C022FF16C0A6
S11326C046815781248135814217530744F4A08100
S11326D0B1819D012F5F3F4F208331838C932681ED
S11326E037812F5F3F4F2683378310C0EB01092FBB
S11326F0182F0084F185E02D0995892BE1F68E8150
S11327009F8101968E839F83812F902FDF91CF919C
S11327101F910F910895FA01AA27283051F1203111
S113272081F1E8946F936E7F6E5F7F4F8F4F9F4F61
S1132730AF4FB1E03ED0B4E03CD0670F781F891FA3
S11327409A1FA11D680F791F8A1F911DA11D6A0F71
S1132750711D811D911DA11D20D009F468943F9124
S11327602AE0269F11243019305D3193DEF6CF0123
S11327700895462F4770405D4193B3E00FD0C9F7E9
S1132780F6CF462F4F70405D4A3318F0495D31FD56
S11327904052419302D0A9F7EACFB4E0A6959795A9
S11327A0879577956795BA95C9F70097610571057F
S11327B008959B01AC010A2E0694579547953795C9
S11327C02795BA95C9F7620F731F841F951FA01D23
S10927D00895F894FFCF08
S11327D6252E3366004553452033323300436F6458
S11327E665642062790044414E2043414F004553BD
S11327F64520333233202D2046616C6C2032303133
S1052806360096
S9030000FC
