S01B00004C43445F494C49393334315F4553455F3332332E73726563F5
S11300000C94D4020C94F1020C94F1020C94F102BD
S11300100C94F1020C94F1020C94F1020C94F10290
S11300200C94F1020C94F1020C94F1020C94F10280
S11300300C94F1020C94F1020C94F1020C94F10270
S11300400C94F1020C94F1020C94F1020C94F10260
S11300500C94F1020C94F1020C94F1020C94F10250
S11300600C94F1020C94F1020C94F1020C94F10240
S11300700C94F1020C94F1020C94F1020C94F10230
S11300800C94F1020C94F1020C94F1020C94F10220
S11300900C94F1020C94F1020C94F1020C94F10210
S11300A00C94F1020C94F1020C94F1020000000093
S11300B0003E5B4F5B3E3E6B4F6B3E1C3E7C3E1CEA
S11300C0183C7E3C181C577D571C1C5E7F5E1C0030
S11300D0183C1800FFE7C3E7FF0018241800FFE7E7
S11300E0DBE7FF30483A060E2629792926407F05AA
S11300F00507407F05253F5A3CE73C5A7F3E1C1CC0
S113010008081C1C3E7F14227F22145F5F005F5F7F
S113011006097F017F006689956A6060606060946B
S1130120A2FFA29408047E040810207E2010080870
S11301302A1C08081C2A08081E101010100C1E0C7B
S11301401E0C30383E3830060E3E0E06000000000D
S11301500000005F00000007000700147F147F14F4
S1130160242A7F2A12231308646236495620500039
S113017008070300001C2241000041221C002A1C25
S11301807F1C2A08083E0808008070300008080810
S11301900808000060600020100804023E51494530
S11301A03E00427F400072494949462141494D334E
S11301B01814127F1027454545393C4A49493141B5
S11301C0211109073649494936464949291E000083
S11301D014000000403400000008142241141414D8
S11301E01414004122140802015909063E415D59C4
S11301F04E7C1211127C7F494949363E41414122CD
S11302007F4141413E7F494949417F090909013EF6
S1130210414151737F0808087F00417F410020401D
S1130220413F017F081422417F404040407F021C2F
S1130230027F7F0408107F3E4141413E7F09090946
S1130240063E4151215E7F09192946264949493212
S113025003017F01033F4040403F1F2040201F3FD8
S11302604038403F6314081463030478040361595D
S1130270494D43007F41414102040810200041419F
S1130280417F04020102044040404040000307084B
S11302900020545478407F28444438384444442847
S11302A0384444287F385454541800087E090218EE
S11302B0A4A49C787F0804047800447D4000204076
S11302C0403D007F1028440000417F40007C0478BA
S11302D004787C080404783844444438FC18242402
S11302E01818242418FC7C08040408485454542482
S11302F004043F44243C4040207C1C2040201C3CFF
S11303004030403C44281028444C9090907C4464F5
S1130310544C440008364100000077000000413688
S1130320080002010204023C2623263C1EA1A1610E
S1130330123A4040207A3854545559215555794140
S11303402254547842215554784020545579400C15
S11303501E527212395555555939545454593955F8
S11303605454580000457C410002457D420001453B
S11303707C407D1211127DF0282528F07C545545CF
S1130380002054547C547C0A097F4932494949323B
S11303903A4444443A324A4848303A4141217A3A4C
S11303A042402078009DA0A07D3D4242423D3D4018
S11303B040403D3C24FF2424487E4943662B2FFCC7
S11303C02F2BFF0929F620C0887E09032054547975
S11303D0410000447D413048484A32384040227A46
S11303E0007A0A0A727D0D19317D2629292F2826C3
S11303F02929292630484D402038080808080808CB
S11304000808382F10C8ACBA2F102834FA00007B23
S1130410000008142A142222142A1408AA005500E1
S1130420AAAA55AA55AA000000FF00101010FF0048
S1130430141414FF001010FF00FF1010F010F0143B
S11304401414FC001414F700FF0000FF00FF141440
S1130450F404FC141417101F10101F101F1414148C
S11304601F00101010F0000000001F101010101FCB
S113047010101010F010000000FF101010101010D9
S1130480101010FF10000000FF140000FF00FF0018
S1130490001F10170000FC04F41414171017141490
S11304A0F404F40000FF00F714141414141414F7E3
S11304B000F7141414171410101F101F141414F43C
S11304C0141010F010F000001F101F0000001F1483
S11304D0000000FC140000F010F01010FF10FF14D6
S11304E01414FF141010101F00000000F010FFFF80
S11304F0FFFFFFF0F0F0F0F0FFFFFF00000000004E
S1130500FFFF0F0F0F0F0F3844443844FC4A4A4A88
S1130510347E02020606027E027E0263554941636E
S11305203844443C04407E201E2006027E02029988
S1130530A5E7A5991C2A492A1C4C7201724C304A21
S11305404D4D303048784830BC625A463D3E4949AA
S113055049007E0101017E2A2A2A2A2A44445F4452
S11305604440514A444040444A51400000FF010382
S1130570E080FF000008086B6B083612362436064C
S11305800F090F060000181800000010100030407A
S1130590FF0101001F01011E00191D1712003C3C40
S11305A03C3C00000000000011241FBECFEFCDBF73
S11305B0DFE2DEBF10E2A0E0B0E2E8E4F1E202C074
S11305C005900D92A031B107D9F720E2A0E1B0E285
S11305D001C01D92AD32B207E1F70E946D0D0C947B
S11305E0A2100C9400002F923F924F925F926F9250
S11305F07F928F929F92AF92BF92CF92DF92EF92AF
S1130600FF920F931F93CF93DF93CDB7DEB7299754
S1130610CDBFDEBFE0910220F09103208E179F072B
S113062008F07AC0E0910020F09101206E177F0756
S113063008F072C0AE2CB12CFC0156E0E59EE00D32
S1130640F11D11241E161F060CF066C0F501EE0FF5
S1130650FF1FEE0FFF1FEE0FFF1FE60FF71F1E1603
S11306601F060CF059C0180139016C837D8365E0C5
S1130670469F900111244C0189839A83E12C8C813B
S11306809D8108962C01D901A819B909AE83BF83AD
S1130690EB821A2DBB81B53009F462C0EE81FF8173
S11306A089819A81E80FF91FE455FF4F0491CC80AA
S11306B0DD8076010987188716C0A885A13009F462
S11306C041C083019501A501B601C4010E94A90C92
S11306D0E985E695E987FFEFEF1AFF0ACA0CDB1CF0
S11306E0E414F50459F0998590FDE7CF621473047E
S11306F079F3B885B13069F18101E4CF18855B8164
S11307005F5F5B8389819A81019689839A838A0CCE
S11307109B1C563009F0BECF2996CDBFDEBFDF91BA
S1130720CF911F910F91FF90EF90DF90CF90BF90EA
S1130730AF909F908F907F906F905F904F903F907D
S11307402F900895A301B70189819A810E94880C92
S1130750BFCFA101B70189819A810E94880CB8CFCB
S113076000E0A5CF8093232090932420609315204C
S1130770709316200895809317209093182008955D
S11307808093192090931A2008958093122008953D
S1130790EF920F931F938A3051F18D3021F1482F3E
S11307A00091192010911A202091172030911820BF
S11307B06091152070911620E090122080912320E2
S11307C0909124200E94F3022091122080912320F2
S11307D09091242036E0239F800D911D1124809355
S11307E02320909324201F910F91EF90089520913E
S11307F01220809115209091162038E0239F800DBF
S1130800911D11248093152090931620109223207B
S1130810109224201F910F91EF900895EF92FF9270
S11308200F931F93CF93DF93EC0188818823D1F03A
S11308307E019FEFE91AF90A04E010E205C0F7010E
S113084081917F01882371F00E94C803DF93CF93C5
S11308501F930F930E94DD0D0F900F900F900F9038
S1130860209769F7DF91CF911F910F91FF90EF903F
S11308700895809140068C608093400680914406E0
S113088084608093440688ED84BF80915000806228
S1130890809350008091510085FFFCCF88ED84BF88
S11308A095E09093400084BF84E0809341000895D4
S11308B0E0914406E77EE0934406EAE2E093E3082D
S11308C0E091E208E7FFFCCFE0914406E061E093A9
S11308D04406E0914406E860E0934406E09144064F
S11308E0EF7EE09344069093E3089091E20897FF2B
S11308F0FCCF9091440690619093440690914406F5
S1130900986090934406909144069F7E9093440689
S11309108093E3088091E20887FFFCCF809144062E
S113092080618093440680914406886080934406E5
S1130930809144068F7E809344065093E30880910F
S1130940E20887FFFCCF80914406806180934406CF
S113095080914406886080934406809144068F7E8B
S1130960809344064093E3088091E20887FFFCCF1C
S11309708091440680618093440680914406877E7A
S1130980809344068BE28093E3088091E20887FF1A
S1130990FCCF809144068061809344068091440694
S11309A0886080934406809144068F7E8093440639
S11309B07093E3088091E20887FFFCCF809144069E
S11309C08061809344068091440688608093440645
S11309D0809144068F7E809344066093E30880915F
S11309E0E20887FFFCCF809144068061809344062F
S11309F080914406886080934406809144068F7EEB
S1130A00809344063093E3088091E20887FFFCCF8B
S1130A1080914406806180934406809144068860F6
S1130A2080934406809144068F7E809344062093ED
S1130A30E3088091E20887FFFCCF8091440680613F
S1130A408093440680914406877E809344068CE21A
S1130A508093E3088091E20887FFFCCF80914406ED
S1130A6080618093440608950E9439048091400671
S1130A70806B809340068091E00880658093E00855
S1130A80809144068061809344068091440684608A
S1130A908093440682E48A95F1F700C0809144066D
S1130AA08B7F8093440692E49A95F1F700C080917D
S1130AB0440684608093440682E48A95F1F700C07A
S1130AC080914406877E8093440681E08093E30806
S1130AD08091E20887FFFCCF809144068061809377
S1130AE0440680914406877E809344068BEC809371
S1130AF0E3088091E20887FFFCCF8091440680617F
S1130B0080934406809144068860809344068091D3
S1130B1044068F7E8093440689E38093E3088091A2
S1130B20E20887FFFCCF80914406806180934406ED
S1130B3080914406886080934406809144068F7EA9
S1130B40809344068CE28093E3088091E20887FF57
S1130B50FCCF8091440680618093440680914406D2
S1130B60886080934406809144068F7E8093440677
S1130B701092E3088091E20887FFFCCF809144063D
S1130B808061809344068091440688608093440683
S1130B90809144068F7E8093440684E38093E30827
S1130BA08091E20887FFFCCF8091440680618093A6
S1130BB044068091440688608093440680914406EC
S1130BC08F7E8093440682E08093E3088091E2085C
S1130BD087FFFCCF80914406806180934406809116
S1130BE04406877E809344068FEC8093E3088091CB
S1130BF0E20887FFFCCF809144068061809344061D
S1130C0080914406886080934406809144068F7ED8
S1130C10809344061092E3088091E20887FFFCCF9A
S1130C2080914406806180934406809144068860E4
S1130C3080934406809144068F7E8093440681EC21
S1130C408093E3088091E20887FFFCCF80914406FB
S1130C5080618093440680914406886080934406B2
S1130C60809144068F7E8093440680E38093E3085A
S1130C708091E20887FFFCCF8091440680618093D5
S1130C80440680914406877E8093440688EE8093D0
S1130C90E3088091E20887FFFCCF809144068061DD
S1130CA08093440680914406886080934406809132
S1130CB044068F7E8093440685E88093E308809100
S1130CC0E20887FFFCCF809144068061809344064C
S1130CD080914406886080934406809144068F7E08
S1130CE0809344061092E3088091E20887FFFCCFCA
S1130CF08091440680618093440680914406886014
S1130D0080934406809144068F7E8093440688E74E
S1130D108093E3088091E20887FFFCCF809144062A
S1130D2080618093440680914406877E80934406C4
S1130D308AEE8093E3088091E20887FFFCCF8091DC
S1130D4044068061809344068091440688608093C1
S1130D504406809144068F7E809344061092E308F3
S1130D608091E20887FFFCCF8091440680618093E4
S1130D70440680914406886080934406809144062A
S1130D808F7E809344061092E3088091E20887FFE7
S1130D90FCCF809144068061809344068091440690
S1130DA0877E809344068DEE8093E3088091E20869
S1130DB087FFFCCF80914406806180934406809134
S1130DC04406886080934406809144068F7E809315
S1130DD0440684E68093E3088091E20887FFFCCF11
S1130DE08091440680618093440680914406886023
S1130DF080934406809144068F7E8093440683E06A
S1130E008093E3088091E20887FFFCCF8091440639
S1130E1080618093440680914406886080934406F0
S1130E20809144068F7E8093440682E18093E30898
S1130E308091E20887FFFCCF809144068061809313
S1130E404406809144068860809344068091440659
S1130E508F7E8093440681E88093E3088091E208C2
S1130E6087FFFCCF80914406806180934406809183
S1130E704406877E8093440687EF8093E30880913D
S1130E80E20887FFFCCF809144068061809344068A
S1130E9080914406886080934406809144068F7E46
S1130EA08093440680E28093E3088091E20887FF00
S1130EB0FCCF80914406806180934406809144066F
S1130EC0877E8093440680EC8093E3088091E20857
S1130ED087FFFCCF80914406806180934406809113
S1130EE04406886080934406809144068F7E8093F4
S1130EF0440683E28093E3088091E20887FFFCCFF5
S1130F008091440680618093440680914406877EE4
S1130F108093440681EC8093E3088091E20887FF84
S1130F20FCCF8091440680618093440680914406FE
S1130F30886080934406809144068F7E80934406A3
S1130F4080E18093E3088091E20887FFFCCF8091E1
S1130F50440680618093440680914406877E809392
S1130F60440685EC8093E3088091E20887FFFCCF78
S1130F708091440680618093440680914406886091
S1130F8080934406809144068F7E809344068EE3CA
S1130F908093E3088091E20887FFFCCF80914406A8
S1130FA0806180934406809144068860809344065F
S1130FB0809144068F7E8093440688E28093E30800
S1130FC08091E20887FFFCCF809144068061809382
S1130FD0440680914406877E8093440687EC809380
S1130FE0E3088091E20887FFFCCF8091440680618A
S1130FF080934406809144068860809344068091DF
S113100044068F7E8093440686E88093E3088091AB
S1131010E20887FFFCCF80914406806180934406F8
S113102080914406877E8093440686E38093E30898
S11310308091E20887FFFCCF809144068061809311
S11310404406809144068860809344068091440657
S11310508F7E8093440688E48093E3088091E208BD
S113106087FFFCCF80914406806180934406809181
S11310704406877E809344068AE38093E308809144
S1131080E20887FFFCCF8091440680618093440688
S113109080914406886080934406809144068F7E44
S11310A08093440685E58093E3088091E20887FFF6
S11310B0FCCF80914406806180934406809144066D
S11310C0877E8093440681EB8093E3088091E20855
S11310D087FFFCCF80914406806180934406809111
S11310E04406886080934406809144068F7E8093F2
S11310F044061092E3088091E20887FFFCCF8091B8
S113110044068061809344068091440688608093FD
S11311104406809144068F7E8093440688E1809340
S1131120E3088091E20887FFFCCF80914406806148
S11311308093440680914406877E8093440686EB20
S11311408093E3088091E20887FFFCCF80914406F6
S113115080618093440680914406886080934406AD
S1131160809144068F7E8093440688E08093E30850
S11311708091E20887FFFCCF8091440680618093D0
S11311804406809144068860809344068091440616
S11311908F7E8093440682E88093E3088091E2087E
S11311A087FFFCCF80914406806180934406809140
S11311B04406886080934406809144068F7E809321
S11311C0440687E28093E3088091E20887FFFCCF1E
S11311D08091440680618093440680914406877E12
S11311E08093440682EF8093E3088091E20887FFAE
S11311F0FCCF80914406806180934406809144062C
S1131200886080934406809144068F7E80934406D0
S11312101092E3088091E20887FFFCCF8091440696
S113122080618093440680914406877E80934406BF
S113123086E28093E3088091E20887FFFCCF8091E7
S113124044068061809344068091440688608093BC
S11312504406809144068F7E8093440681E0809307
S1131260E3088091E20887FFFCCF80914406806107
S11312708093440680914406877E8093440680EEE2
S11312808093E3088091E20887FFFCCF80914406B5
S1131290806180934406809144068860809344066C
S11312A0809144068F7E809344068FE08093E30808
S11312B08091E20887FFFCCF80914406806180938F
S11312C044068091440688608093440680914406D5
S11312D08F7E8093440681E38093E3088091E20843
S11312E087FFFCCF809144068061809344068091FF
S11312F04406886080934406809144068F7E8093E0
S113130044068BE28093E3088091E20887FFFCCFD8
S113131080914406806180934406809144068860ED
S113132080934406809144068F7E809344068CE02B
S11313308093E3088091E20887FFFCCF8091440604
S113134080618093440680914406886080934406BB
S1131350809144068F7E809344068EE08093E30858
S11313608091E20887FFFCCF8091440680618093DE
S11313704406809144068860809344068091440624
S11313808F7E8093440688E08093E3088091E2088E
S113139087FFFCCF8091440680618093440680914E
S11313A04406886080934406809144068F7E80932F
S11313B044068EE48093E3088091E20887FFFCCF23
S11313C0809144068061809344068091440688603D
S11313D080934406809144068F7E8093440681EF77
S11313E08093E3088091E20887FFFCCF8091440654
S11313F0806180934406809144068860809344060B
S1131400809144068F7E8093440687E38093E308AB
S11314108091E20887FFFCCF80914406806180932D
S11314204406809144068860809344068091440673
S11314308F7E8093440687E08093E3088091E208DE
S113144087FFFCCF8091440680618093440680919D
S11314504406886080934406809144068F7E80937E
S1131460440680E18093E3088091E20887FFFCCF83
S1131470809144068061809344068091440688608C
S113148080934406809144068F7E8093440683E0D3
S11314908093E3088091E20887FFFCCF80914406A3
S11314A0806180934406809144068860809344065A
S11314B0809144068F7E809344068EE08093E308F7
S11314C08091E20887FFFCCF80914406806180937D
S11314D044068091440688608093440680914406C3
S11314E08F7E8093440689E08093E3088091E2082C
S11314F087FFFCCF809144068061809344068091ED
S11315004406886080934406809144068F7E8093CD
S113151044061092E3088091E20887FFFCCF809193
S1131520440680618093440680914406877E8093BC
S1131530440681EE8093E3088091E20887FFFCCFA4
S113154080914406806180934406809144068860BB
S113155080934406809144068F7E809344061092C3
S1131560E3088091E20887FFFCCF80914406806104
S11315708093440680914406886080934406809159
S113158044068F7E809344068EE08093E308809126
S1131590E20887FFFCCF8091440680618093440673
S11315A080914406886080934406809144068F7E2F
S11315B08093440684E18093E3088091E20887FFE6
S11315C0FCCF809144068061809344068091440658
S11315D0886080934406809144068F7E80934406FD
S11315E083E08093E3088091E20887FFFCCF809139
S11315F04406806180934406809144068860809309
S11316004406809144068F7E8093440681E1809352
S1131610E3088091E20887FFFCCF80914406806153
S113162080934406809144068860809344068091A8
S113163044068F7E8093440687E08093E30880917C
S1131640E20887FFFCCF80914406806180934406C2
S113165080914406886080934406809144068F7E7E
S11316608093440681E38093E3088091E20887FF36
S1131670FCCF8091440680618093440680914406A7
S1131680886080934406809144068F7E809344064C
S113169081EC8093E3088091E20887FFFCCF80917E
S11316A04406806180934406809144068860809358
S11316B04406809144068F7E8093440688E4809398
S11316C0E3088091E20887FFFCCF809144068061A3
S11316D080934406809144068860809344068091F8
S11316E044068F7E8093440688E08093E3088091CB
S11316F0E20887FFFCCF8091440680618093440612
S113170080914406886080934406809144068F7ECD
S1131710809344068FE08093E3088091E20887FF7A
S1131720FCCF8091440680618093440680914406F6
S1131730886080934406809144068F7E809344069B
S11317408CE08093E3088091E20887FFFCCF8091CE
S113175044068061809344068091440688608093A7
S11317604406809144068F7E8093440681E38093EF
S1131770E3088091E20887FFFCCF809144068061F2
S11317808093440680914406886080934406809147
S113179044068F7E8093440686E38093E308809119
S11317A0E20887FFFCCF8091440680618093440661
S11317B080914406886080934406809144068F7E1D
S11317C0809344068FE08093E3088091E20887FFCA
S11317D0FCCF809144068061809344068091440646
S11317E0877E8093440681E18093E3088091E20838
S11317F087FFFCCF809144068061809344068FE28A
S113180095E70197F1F700C0000080914406877EB8
S11318108093440689E28093E3088091E20887FF7D
S1131820FCCF809144068061809344060895209102
S11318304406286020934406209144062F7E20937A
S113184044069093E3089091E20897FFFCCF9091AF
S11318504406906190934406909144069860909356
S11318604406909144069F7E909344068093E30837
S11318708091E20887FFFCCF8091440680618093C9
S113188044060895EF92FF920F931F93CF93DF9333
S11318908C01209100203091012021503109409188
S11318A00220509103204150510960E070E080E033
S11318B090E00E94580480910220909103200097A8
S11318C001F1E12CF12C209100203091012021150F
S11318D0310589F0C0E0D0E0C8010E94170C2196C0
S11318E02091002030910120C217D307A8F38091E2
S11318F00220909103204FEFE41AF40AE816F90647
S113190030F3DF91CF911F910F91FF90EF900895E5
S1131910CF93DF9320910220309103208217930705
S113192038F420910020309101206217730718F0D9
S1131930DF91CF910895EA019B012F5F3F4FAC01E6
S11319404F5F5F4F0E945804CE01DF91CF910C94FA
S1131950170CCF92DF92EF92FF920F931F93CF93C6
S1131960DF936A01790120910220309103208217CC
S11319709307A8F540910020509101206417750742
S113198070F5F6013197E80FF91FE217F30718F025
S11319906901C81AD90A970121503109260F371F46
S11319A02417350728F59B01215031092E0D3F1DC1
S11319B0AC01415051094C0D5D1D0E945804E114C5
S11319C0F10469F0C114D10431F0E601C8010E94A8
S11319D0170C2197D9F781E0E81AF10899F7DF91FC
S11319E0CF911F910F91FF90EF90DF90CF900895CA
S11319F07A01E61AF70AD7CF90914406977E90931E
S1131A00440696E39093E3089091E20897FFFCCF95
S1131A1090914406906190934406813009F450C03B
S1131A2008F441C0823019F08330F9F008958091B0
S1131A304406877E8093440688E88093E308809177
S1131A40E20887FFFCCF80914406806180934406BE
S1131A5080EF90E0809302209093032080E491E053
S1131A608093002090930120089580914406877EFE
S1131A708093440688EE8093E3088091E20887FF10
S1131A80FCCF8091440680618093440680E491E019
S1131A90809302209093032080EF90E080930020B5
S1131AA090930120089580914406877E8093440694
S1131AB088E48093E3088091E20887FFFCCFC3CFDA
S1131AC080914406877E8093440688E28093E308ED
S1131AD08091E20887FFFCCFD4CF0E9434058FEFBA
S1131AE09FEF0E94420C80E190E80E94BB0364E1F6
S1131AF070E084E190E00E94B20385E00E94C50397
S1131B008FEF9FEF0E94C00383E090E00E94FC0CE3
S1131B1083E40E94C8038FE40E94C80384E40E9403
S1131B20C80385E40E94C80384E40E94C8038AE0D1
S1131B300E94C80383E00E94C50380E094E00E94F1
S1131B40BB0360E570E084E190E00E94B20382E4AC
S1131B500E94C80389E50E94C80380E20E94C8036A
S1131B6082E50E94C80381E40E94C8038AE40E94BB
S1131B70C80389E40E94C80384E50E94C80388E47A
S1131B800E94C80382EB98EF0E94BB0368E770E0F1
S1131B9084E190E00E94B2038DE30E94C8038DE5C6
S1131BA00E94C80387E090E20E940E0483EC99E04F
S1131BB00197F1F700C00000F9CFA0E0B0E0E3EE38
S1131BC0FDE00C948110AE014B5F5F4FFA0161910F
S1131BD07191AF018091292090912A200E94F30DE8
S1131BE0E2E00C949A10ACE0B0E0E9EFFDE00C9474
S1131BF071107C016B018A01FC01168217828381BA
S1131C0081FFBDC1CE0101964C01F7019381F6011C
S1131C1093FD859193FF81916F01882309F4ABC1F2
S1131C20853239F493FD859193FF81916F0185325B
S1131C3029F4B70190E00E94DB0FE7CF512C312C3F
S1131C4020E02032A0F48B3269F030F4803259F075
S1131C50833269F420612CC08D3239F0803339F439
S1131C60216026C02260246023C0286021C027FD93
S1131C7027C030ED380F3A3078F426FF06C0FAE07A
S1131C805F9E300D1124532E13C08AE0389E300D10
S1131C901124332E20620CC08E3221F426FD6BC138
S1131CA0206406C08C3611F4206802C0883641F4E2
S1131CB0F60193FD859193FF81916F018111C1CF4D
S1131CC0982F9F7D9554933028F40C5F1F4FFFE3AA
S1131CD0F9830DC0833631F0833771F0833509F011
S1131CE05BC022C0F801808189830E5F1F4F4424AA
S1131CF04394512C540115C03801F2E06F0E711C4D
S1131D00F801A080B18026FF03C0652D70E002C0F9
S1131D106FEF7FEFC5012C870E94D00F2C01830148
S1131D202C852F77222E17C03801F2E06F0E711C1C
S1131D30F801A080B18026FF03C0652D70E002C0C9
S1131D406FEF7FEFC5012C870E94C50F2C012C85F6
S1131D502068222E830123FC1BC0832D90E04816AB
S1131D605906B0F4B70180E290E00E94DB0F3A9488
S1131D70F4CFF50127FC859127FE81915F01B7011E
S1131D8090E00E94DB0F31103A94F1E04F1A5108B1
S1131D904114510471F7E5C0843611F0893639F5E0
S1131DA0F80127FF07C060817181828193810C5FF4
S1131DB01F4F08C060817181072E000C880B990B9E
S1131DC00E5F1F4F2F76722E97FF09C09095809556
S1131DD0709561957F4F8F4F9F4F2068722E2AE038
S1131DE030E0A4010E941310A82EA81844C085371F
S1131DF029F42F7EB22E2AE030E025C0F22FF97F9D
S1131E00BF2E8F36C1F018F4883579F0B4C080370E
S1131E1019F0883721F0AFC02F2F2061B22EB4FE05
S1131E200DC08B2D8460B82E09C024FF0AC09F2FDB
S1131E309660B92E06C028E030E005C020E130E00D
S1131E4002C020E132E0F801B7FE07C06081718171
S1131E50828193810C5F1F4F06C06081718180E095
S1131E6090E00E5F1F4FA4010E941310A82EA81823
S1131E70FB2DFF777F2E76FE0BC0372D3E7FA514FA
S1131E8050F474FE0AC072FC08C0372D3E7E05C0B3
S1131E90BA2C372D03C0BA2C01C0B52C34FF0DC0A9
S1131EA0FE01EA0DF11D8081803311F4397E09C0F1
S1131EB032FF06C0B394B39404C0832F867809F02C
S1131EC0B39433FD13C030FF06C05A2CB31418F476
S1131ED0530C5B18B32CB31468F4B70180E290E0A0
S1131EE03C870E94DB0FB3943C85F5CFB31410F408
S1131EF03B1801C0312C34FF12C0B70180E390E0DD
S1131F003C870E94DB0F3C8532FF17C031FD03C0C4
S1131F1088E790E002C088E590E0B7010CC0832F09
S1131F20867859F031FF02C08BE201C080E237FDB0
S1131F308DE2B70190E00E94DB0FA51438F4B701DD
S1131F4080E390E00E94DB0F5A94F7CFAA94F40147
S1131F50EA0DF11D8081B70190E00E94DB0FA11012
S1131F60F5CF332009F451CEB70180E290E00E940E
S1131F70DB0F3A94F6CFF7018681978102C08FEF89
S1131F809FEF2C96E2E10C948A10FC0105906150BD
S1131F9070400110D8F7809590958E0F9F1F08957B
S1131FA0FC016150704001900110D8F78095909524
S1131FB08E0F9F1F08950F931F93CF93DF93FB0101
S1131FC0238121FD03C08FEF9FEF28C022FF16C09D
S1131FD046815781248135814217530744F4A081F7
S1131FE0B1819D012F5F3F4F208331838C932681E4
S1131FF037812F5F3F4F2683378310C0EB01092FB2
S1132000182F0084F185E02D0995892BE1F68E8146
S11320109F8101968E839F83812F902FDF91CF9193
S11320201F910F910895FA01AA27283051F1203108
S113203081F1E8946F936E7F6E5F7F4F8F4F9F4F58
S1132040AF4FB1E03ED0B4E03CD0670F781F891F9A
S11320509A1FA11D680F791F8A1F911DA11D6A0F68
S1132060711D811D911DA11D20D009F468943F911B
S11320702AE0269F11243019305D3193DEF6CF011A
S11320800895462F4770405D4193B3E00FD0C9F7E0
S1132090F6CF462F4F70405D4A3318F0495D31FD4D
S11320A04052419302D0A9F7EACFB4E0A6959795A0
S11320B0879577956795BA95C9F700976105710576
S11320C008959B01AC010A2E0694579547953795C0
S11320D02795BA95C9F7620F731F841F951FA01D1A
S11320E008952F923F924F925F926F927F928F92B8
S11320F09F92AF92BF92CF92DF92EF92FF920F9393
S11321001F93CF93DF93CDB7DEB7CA1BDB0BCDBFD5
S1132110DEBF09942A88398848885F846E847D8468
S11321208C849B84AA84B984C884DF80EE80FD807B
S11321300C811B81AA81B981CE0FD11DCDBFDEBF19
S10B2140ED010895F894FFCFAE
S11321484001F000256300574F524B494E470000A9
S9030000FC
